:020000040800F2
:1000000000000320716F0008550D0008590D00080D
:100010005D0D0008610D0008650D0008000000007E
:10002000000000000000000000000000815A0008ED
:10003000690D000800000000215B0008855B0008D6
:10004000C16F0008C16F0008C16F0008C16F0008D0
:10005000C16F0008C16F0008C16F0008C16F0008C0
:10006000C16F0008C16F0008C16F0008C16F0008B0
:10007000C16F0008C16F0008C16F0008C16F0008A0
:10008000C16F0008C16F0008C16F0008C16F000890
:10009000C16F0008C16F0008C16F0008C16F000880
:1000A000C16F0008C16F0008C16F0008C16F000870
:1000B000C16F0008C16F0008C16F0008C16F000860
:1000C000C16F0008C16F0008C16F0008C16F000850
:1000D000C16F0008C16F0008C16F0008C16F000840
:1000E000C16F0008C16F0008C16F0008C16F000830
:1000F000C16F0008C16F0008C16F0008C16F000820
:10010000C16F0008C16F0008C16F0008C16F00080F
:10011000C16F0008C16F00086D0D0008C16F0008B5
:10012000C16F0008C16F0008C16F0008C16F0008EF
:10013000C16F0008C16F0008C16F0008C16F0008DF
:10014000C16F0008C16F0008C16F0008C16F0008CF
:10015000C16F0008C16F0008C16F0008C16F0008BF
:10016000C16F0008C16F0008C16F0008C16F0008AF
:10017000C16F00087D0D0008C16F0008000000007D
:10018000C16F0008C16F0008C16F0008C16F00088F
:10019000C16F0008C16F0008C16F0008C16F00087F
:0C01A0008D0D0008C16F00089D0D0008C7
:1001B00010B5054C237833B9044B13B10448AFF3A1
:1001C00000800123237010BD940000200000000077
:1001D000F0710008084B10B51BB108490848AFF38F
:1001E00000800848036803B910BD074B002BFBD003
:1001F000BDE81040184700BF000000009800002034
:10020000F0710008940000200000000053B94AB9C2
:10021000002908BF00281CBF4FF0FF314FF0FF300E
:1002200000F07EB9ADF1080C6DE904CE00F006F8DF
:10023000DDF804E0DDE9022304B070472DE9F04762
:100240008C460E460446089D002B50D18A42174624
:100250006CD9B2FA82FEBEF1000F0BD0CEF12004B1
:1002600020FA04F401FA0EF644EA060C02FA0EF73C
:1002700000FA0EF44FEA1749220CBCFBF9F01FFA02
:1002800087F809FB10C642EA064600FB08F3B342B2
:1002900009D9F61900F1FF3280F02281B34240F211
:1002A0001F8102383E44F61AA2B2B6FBF9F309FBED
:1002B000136642EA064403FB08F8A04509D9E4198D
:1002C00003F1FF3280F00A81A04540F20781023B32
:1002D0003C44C8EB040443EA00400021002D62D0F6
:1002E00024FA0EF400232C606B60BDE8F0878B428B
:1002F00007D9002D55D0002185E841000846BDE80A
:10030000F087B3FA83F1002940F09080B34202D322
:10031000824200F2F880841A66EB03060120B4469C
:10032000002D40D085E81010BDE8F08712B90127F4
:10033000B7FBF2F7B7FA87FEBEF1000F35D1F31B1A
:100340004FEA17481FFA87FC0121B3FBF8F0220C93
:1003500008FB103642EA06460CFB00F3B34207D90D
:10036000F61900F1FF3202D2B34200F2CE801046FD
:10037000F61AA2B2B6FBF8F308FB136642EA06448B
:100380000CFB03FCA44507D9E41903F1FF3202D2A8
:10039000A44500F2B5801346CCEB040443EA0040C8
:1003A0009CE729462846BDE8F087CEF1200106FAF1
:1003B0000EF307FA0EF720FA01F94FEA1748CE407C
:1003C00049EA0309B6FBF8FA4FEA194408FB1A6632
:1003D0001FFA87FC44EA06430AFB0CF29A4200FA31
:1003E0000EF40AD9DB190AF1FF3180F087809A42B6
:1003F00040F28480AAF1020A3B449B1A1FFA89F951
:10040000B3FBF8F108FB113349EA034301FB0CF697
:100410009E4207D9DB1901F1FF326BD29E4269D9A6
:1004200002393B449B1B41EA0A418EE7C1F1200E91
:1004300022FA0EF48B40234320FA0EF706FA01F459
:100440004FEA134C26FA0EF63C43B6FBFCF9270C98
:100450000CFB19661FFA83F847EA064609FB08F702
:10046000B74202FA01F200FA01FA08D9F61809F1C6
:10047000FF3041D2B7423FD9A9F102091E44F61B11
:10048000A0B2B6FBFCF40CFB146640EA064704FB82
:1004900008F8B84507D9FF1804F1FF3028D2B8454D
:1004A00026D9023C1F4444EA0940C8EB0707A0FBD9
:1004B00002894F4544464E4614D329D065B3BAEB62
:1004C000040367EB060707FA0EFECB40CF404EEA67
:1004D000030385E888000021BDE8F0871346F8E6AD
:1004E0001046E0E6B8EB020469EB03060138E5E7E5
:1004F0000446D8E7114695E78146C0E78A467CE77F
:10050000023B3C4448E708460AE702383E442FE7EE
:10051000C245E7D33E46D1E72946BDE8F08700BF94
:10052000704700BF2DE9F0478EB0002409940A946B
:100530000B940C940D9401945D4B1A6B42F00402E1
:100540001A631A6B02F004020192019A02941A6B68
:1005500042F020021A631A6B02F020020292029A01
:1005600003941A6B42F080021A631A6B02F0800245
:100570000392039A04941A6B42F001021A631A6BF5
:1005800002F001020492049A05941A6B42F00202EE
:100590001A631A6B02F002020592059A06941A6B0E
:1005A00042F040021A631A6B02F040020692069A69
:1005B00007941A6B42F010021A631A6B02F01002D1
:1005C0000792079A08941A6B42F008021A631B6B91
:1005D00003F008030893089B364F2246162138463D
:1005E00002F0C4FDDFF8D88022468021404602F0A8
:1005F000BDFD314E22464FF44051304602F0B6FD6B
:10060000DFF8C09022464FF4C041484602F0AEFDEC
:100610001623099301250A950B940C9409A93846D1
:1006200002F0B0FC48F207030993DFF89CA0CDF874
:1006300028A00B9409A9404602F0A4FC802309934A
:100640000A950B940C9409A9404602F09BFC2023C8
:100650000993CDF828A00B9409A9384602F092FC22
:10066000042309930A940B9409A9144802F08AFC04
:100670004FF4006309930A940B9409A9304602F0E1
:1006800081FC4FF4405309930A950B940C9409A9EB
:10069000304602F077FC4FF4C04309930A950B945F
:1006A0000C9409A9484602F06DFC0EB0BDE8F08735
:1006B0000038024000080240000C024000040240E2
:1006C00000000240001802400000121008B5034864
:1006D000034B036002F0E2FD08BD00BF1885002057
:1006E0000030024010B5094C094B236000236360C1
:1006F000A360E360A362E36223636363204602F0C6
:10070000DFFD0121204602F0ABFE10BD488600202F
:1007100000B0024000B589B000231348134A0260BC
:100720000122426083600421C160102202614022E4
:1007300042614FF4C0728261C3614FF40062026291
:1007400043624FF400538362022301930722029213
:10075000039104920322059206930793694402F0E1
:100760006DFF09B05DF804FB88860020400100A001
:1007700038B50D4C0D4B23600D4B63600025A56013
:10078000E5604FF4804323616561A561E561256201
:10079000204602F075FF2946204603F04BF8294613
:1007A000204603F069F838BD6C840020005C0040EE
:1007B000A086010030B58FB03422002101A806F0D8
:1007C00042FC244C244B236000256560A560E56055
:1007D0002561092363610123A3611D23E3610323D1
:1007E000236240F20D13636240F24313A36240F2AE
:1007F0001713E36240F24713236384F8345084F8FC
:10080000355084F83650204603F024F90195F02243
:10081000029203954FF4A073049302210591FF21E6
:10082000069107954FF4C0610891072109914FF097
:1008300050410A910B920C938DF834508DF835503D
:100840008DF836502A4601A9204603F0EDF90FB085
:1008500030BD00BF208500200068014008B50C486D
:100860000C4B03604FF48273436000238360C360CA
:10087000036143614FF4007282611822C261036216
:10088000436283620A23C36203F0FCF908BD00BF20
:10089000C08400200050014030B587B0002402948D
:1008A000039404940594009401940D4D0D4B2B601A
:1008B0006C60AC60EC602C616C61AC61284603F04C
:1008C0008BFB4FF48053029302A9284603F0AEFB42
:1008D000009401946946284603F01AFC07B030BD25
:1008E000088600200000014008B50848084B036056
:1008F0004FF4E133436000238360C36003610C2243
:1009000042618361C36103F035FD08BDC8850020E5
:100910000010014008B500F0C1F8012004F09EFE6F
:10092000FBE700BF30B5A1B030252A46002114A84E
:1009300006F089FB00240F941094119412941394E0
:100940002A46214603A806F07EFB0194204B1A6C30
:1009500042F080521A641B6C03F080530193019B98
:1009600002941C4A136823F4404343F48043136009
:10097000136803F440430293029B012314934FF442
:100980008033159302251A954FF480031B9304239B
:100990001C9348231D931E9503231F9314A801F055
:1009A0003FFE0F230F93109511944FF48053129331
:1009B000139429460FA802F0A5F8082303933223C5
:1009C000079309950C9403A802F094F921B030BD67
:1009D000003802400070004030B589B002F01EFCC3
:1009E000FFF7A0FFFFF79EFDFFF770FEFFF77AFE0F
:1009F000FFF790FEFFF7BCFEFFF7DCFEFFF72EFFD0
:100A0000FFF74AFFFFF770FF01AC084D0FCD0FC491
:100A100095E8070084E80700002101A804F0E8FD3C
:100A2000034B186004F0DEFDFEE700BF087200080B
:100A30006884002008B50268024B9A4201D102F096
:100A400007FC08BD00100040704700BF704700BFA2
:100A5000704700BF704700BF034B0360034B0B6040
:100A600080231360704700BFB0020020B000002058
:100A700004290CD0052902D002290BD103E003225E
:100A8000054B1A7070470222034B1A7070470122FF
:100A9000014B1A70704700BF0803002008B5002200
:100AA0000A490B4805F066FA08B1FFF7CDFF09497E
:100AB000074805F095FA08B1FFF7C6FF044805F0AE
:100AC000D5FA08B1FFF7C0FF08BD00BF710A0008E2
:100AD000BC8600201000002070B588B0002303936E
:100AE000049305930693079302681C4B9A4233D1F3
:100AF000002501951A4C236B43F002032363236BFB
:100B000003F002030193019B4FF45043039302232C
:100B100004930C230793134E0DEB0301304602F0B0
:100B200031FA4FF4005303930495059503A9304619
:100B300002F028FA0295236B43F000532363236BE2
:100B400003F000530293029B2A4605214D2002F038
:100B500025FB4D2002F054FB08B070BD000004409E
:100B6000003802400004024008B5D0F8C00205F089
:100B70008BFA08BD08B5D0F8C00205F0E3FB08BD4C
:100B800008B5D0F8C00205F0FDFB08BD08B5D0F8E7
:100B9000C00205F01BFC08BD08B5D0F8C00205F086
:100BA0007DFA08BD08B5D0F8C00205F07BFA08BD93
:100BB00090F8C03313BB10B504461148C0F8C042CA
:100BC000C4F8C4030F4B03600C2383600123C3608C
:100BD0000023036102228261C3610362C362436333
:100BE00000F03AFC08B1FFF72FFF054801F050F97B
:100BF0000146204605F044FA002010BD0020704751
:100C0000948A00200000044008B5D0F8C40301F025
:100C100045F910B1022802D003E0002008BD0220EF
:100C200008BD012008BD00BF08B5D0F8C40301F01D
:100C300029F908BD08B5D0F8C40301F01BF908BDB7
:100C400008B590F8C03313B9084600F077F8C8200B
:100C500002F010FB002008BD10B4D0F8C40301EB73
:100C60008104E3001C46034493F83B3023B1234640
:100C7000034483F8502005E001EB8101CB000344DD
:100C800083F8512000205DF8044B704708B502F04E
:100C9000F1FA08BD10B1022802D003E0002070472D
:100CA000012070470220704708B5D0F8C40301F056
:100CB000B3F8FFF7EFFF08BD08B5D0F8C40301F0A3
:100CC000C1F8FFF7E7FF08BD08B5D0F8C40301F08D
:100CD000CBF8FFF7DFFF08BD10B584B0D0F8C40330
:100CE000BDF8204002949DF81C4001949DF81840E6
:100CF000009400F04FFBFFF7CDFF04B010BD00BF24
:100D000008B5D0F8C40300F095FBFFF7C3FF08BD9A
:100D100010B584B0D0F8C4039DF824400394BDF806
:100D200020400294079C01949DF81840009400F024
:100D3000DFFBFFF7AFFF04B010BD00BF08B508B977
:100D4000012200E000221021014802F00FFA08BD44
:100D500000080240704700BFFEE700BFFEE700BF8B
:100D6000FEE700BFFEE700BF704700BF08B50248BE
:100D700003F014F808BD00BF588D002008B50248E4
:100D800000F0A4FF08BD00BF948A002008B5024807
:100D900002F0E0FE08BD00BF2085002008B5024833
:100DA00002F0C2FA08BD00BF488600202DE9F041DC
:100DB00086B00023019302930393049305932D4B74
:100DC0001B68002B52D14FF001082A4BC3F800805A
:100DD00000260096284B9A6B42EA08029A639B6BA6
:100DE00003EA08030093009B4FF63F030193022799
:100DF0000297032504950C24059401A91F4802F0CD
:100E0000C1F8CDF80480029703960495059401A9D2
:100E10001B4802F0B7F848F2331301930297039688
:100E20000495059401A9174802F0ACF84FF68373B6
:100E30000193029703960495059401A9124802F0C4
:100E4000A1F84CF20373019302970396049505945D
:100E500001A90E4802F096F86023019302970396C9
:100E60000495059401A90A4802F08CF806B0BDE883
:100E7000F08100BF0C030020003802400014024043
:100E8000000802400018024000100240000C02401E
:100E90000004024000B583B0002200920D4B596C53
:100EA00041F480415964596C01F4804100910099EA
:100EB0000192196C41F0805119641B6C03F080534E
:100EC0000193019B0F216FF0010002F067F903B05D
:100ED0005DF804FB003802400268094B9A420DD1CC
:100EE00082B000230193074B1A6B42F480521A63BD
:100EF0001B6B03F480530193019B02B0704700BF4A
:100F0000003002400038024002680E4B9A4218D16D
:100F100000B583B000220192A3F5F043196B41F4B0
:100F2000000119631B6B03F400030193019B05216E
:100F30005A2002F033F95A2002F062F903B05DF84A
:100F400004FB704700B002402DE9F04188B0002357
:100F5000039304930593069307930268204B9A42E8
:100F60003AD1002500951F4C236B43F00403236303
:100F7000236B03F004030093009B0195236B43F064
:100F800001032363236B03F001030193019B4FF4DF
:100F9000007303934FF01208CDF8108001270597D6
:100FA0000426079603A9104801F0ECFF4FF4807364
:100FB0000393CDF8108005970695079603A90B4873
:100FC00001F0E0FF0295236C43F400032364236CDB
:100FD00003F400030293029B08B0BDE8F08100BF58
:100FE000005C00400038024000080240000002405F
:100FF0002DE9F0418CB000230793089309930A93DD
:101000000B9302685A4B9A4240F0AE800024009441
:1010100003F550435A6C42F080625A645A6C02F0F5
:1010200080620092009A01941A6B42F020021A63C7
:101030001A6B02F020020192019A02941A6B42F09C
:1010400001021A631A6B02F001020292029A0394DF
:101050001A6B42F002021A631A6B02F00202039248
:10106000039A04941A6B42F040021A631A6B02F05E
:1010700040020492049A05941A6B42F004021A6327
:101080001A6B02F004020592059A06941A6B42F05C
:1010900008021A631B6B03F008030693069B4FF4C8
:1010A00080630793022508950E260B9607A9314801
:1010B00001F068FF41F658030793089509940A94D4
:1010C0000B9607A92C4801F05DFF032307930895B1
:1010D00009940A944FF00908CDF82C80274F07A9EE
:1010E000384601F04FFF4FF4706307930895099459
:1010F0000A940B9607A9384601F044FF4FF40C639D
:101100000793089509940A940B9607F5A05707A929
:10111000384601F037FF4FF4986307930895099418
:101120000A940B9607A9164801F02CFF4823079351
:10113000089509940A940B9607A9124801F022FF1A
:101140004FF4A0530793089509940A94CDF82C8086
:1011500007A9384601F016FF22460521582002F063
:101160001DF8582002F04CF80CB0BDE8F08100BF2B
:1011700000680140001402400000024000040240E8
:1011800000080240000C024000B589B00023039320
:1011900004930593069307930268144B9A4221D156
:1011A0000021019103F568435A6C42F480125A649D
:1011B0005A6C02F480120192019A02911A6B42F069
:1011C00020021A631B6B03F020030293029B4FF46F
:1011D00060730393022304930523079303A9044830
:1011E00001F0D0FE09B05DF804FB00BF00500140E3
:1011F000001402400268094B9A420DD182B00023CC
:101200000193074B5A6C42F001025A645B6C03F085
:1012100001030193019B02B0704700BF0000014031
:101220000038024000B589B000230393049305936E
:1012300006930793026803F1804303F588339A42CB
:1012400023D10021019103F594335A6C42F010022E
:101250005A645A6C02F010020192019A02911A6BC0
:1012600042F001021A631B6B03F001030293029B1D
:101270004FF4C063039302230493032306930723CD
:10128000079303A9024801F07DFE09B05DF804FB55
:101290000000024008B5FFF789FD08BD10B588B011
:1012A00000220146362001F079FF362001F0A8FF28
:1012B00000240194144B1A6C42F010021A641B6C47
:1012C00003F010030193019B02A903A801F0F4FCB1
:1012D00001F0D2FC40000D4BA3FB00239B0C013B13
:1012E0000B480C4A026040F2E732C260436004617E
:1012F000846002F071FE18B9054802F035FD00E087
:10130000012008B010BD00BF0038024083DE1B433F
:10131000588D002000100040F8B507683A6AC2F303
:101320004343C2F30A14022B30D102F00F056CB311
:1013300005EB8502D3000344596C39B306462246B7
:10134000384600F073FEAA002A44D30033445A6C96
:1013500022445A64DA6C2244DA6407EB4513D3F86A
:1013600010150B4A0A408AB1D3F8002522F08042BA
:1013700042F00042C3F80025AB005919CA003244BC
:1013800092F8503083F0010382F85030F8BD00BF6E
:101390000000F81FF0B585B09DF828509DF82C602E
:1013A000BDF8307090F8B842012C40D0012480F88C
:1013B000B8424FEA810E8E444FEACE0404444FF007
:1013C000000E84F83DE084F83830A4F8407084F8CA
:1013D000391084F83F6002F07F0E84F83AE012F092
:1013E000800F09D001EB810E4FEACE0404444FF088
:1013F000010E84F83BE008E001EB810E4FEACE04D9
:1014000004444FF0000E84F83BE0044601EB810EEB
:101410004FEACE00204480F83C5002970196009598
:10142000206800F00FFF002384F8B83200E00220AB
:1014300005B0F0BD90F8B832012B0BD010B50446C2
:10144000012380F8B832006800F086FF002084F89D
:10145000B80210BD02207047002845D0F0B58BB00F
:101460000646046890F8B93213F0FF0F04D1002348
:1014700080F8B832FFF730FB032386F8B932E36B0C
:1014800013F4807F01D100233361306800F074FDD4
:10149000344654F810EB6D460FCC0FC50FCC0FC57A
:1014A00094E8030085E80300371D97E80E007046B6
:1014B00000F018FD0121306800F064FD344654F856
:1014C00010EB6D460FCC0FC50FCC0FC594E8030091
:1014D00085E8030097E80E00704600F023FE012324
:1014E00086F8B932002001E0012070470BB0F0BD52
:1014F000F8B59DF81870BDF820608D000D44EC0023
:10150000044484F83B2084F83F303FB901EB810567
:10151000EC000444032584F8425006E001EB810509
:10152000EC000444022584F84250032B00F28E8024
:10153000DFE803F002852756012F40F08780002A5C
:1015400040F0848036B901EB8102D30003440122CC
:1015500083F8512001EB8102D300034493F851300A
:101560003BB901EB8102D3000344002283F84220FF
:101570006CE001EB8102D3000344022283F8422095
:1015800064E0B2B901EB8102D300034493F8513017
:101590003BB901EB8102D3000344002283F84220CF
:1015A00054E001EB8102D3000344022283F842207D
:1015B0004CE001EB8102D300034493F850303BB977
:1015C00001EB8102D3000344002283F842203DE076
:1015D00001EB8102D3000344022283F8422035E06C
:1015E000B2B901EB8102D300034493F851303BB907
:1015F00001EB8102D3000344002283F8422025E05E
:1016000001EB8102D3000344022283F842201DE053
:1016100001EB8102D300034493F850303BB901EB56
:101620008102D3000344002283F842200EE001EB44
:101630008102D3000344022283F8422006E001EB3A
:101640008102D3000344002283F842208C006218F8
:10165000D3000344079A5A649E64002283F85C20F6
:10166000DA6483F8391083F85D202144CB0003F15C
:101670003801027C0144006800F0E8FEF8BD00BFBC
:1016800030B583B005460468D4F840340193D4F8EB
:1016900040340093009B23F02E030093019B13F032
:1016A000020F0DD0019B13F0010F05D0A36923F0A9
:1016B0000053A361FFF75EFA009B43F0020300931F
:1016C000019B13F0080F36D0009B43F008030093F2
:1016D000019B13F0040F20D0AB69022B0FD1019BAB
:1016E00003F4C023B3F5802F04D10221286800F051
:1016F000B7FC0BE00121286800F0B2FC06E0EB68C3
:10170000012B03D14EF66022C4F804242846FFF7CB
:1017100043FA2846FFF72EFA0DE02846FFF742FA73
:10172000D4F8403423F02E03C4F840342A68936977
:1017300043F000539361019B13F0200F03D0009BF3
:1017400043F020030093009BC4F8403403B030BD45
:10175000F8B506460D46076807EB411707F5A06484
:10176000A36813F0040F06D00423A360E36843F0DA
:101770000203E36034E0A36813F0200F02D02023BB
:10178000A3602DE0A36813F0080F12D0E36843F0C4
:101790000203E36001EB8102D3000344052283F8D6
:1017A0005D201023A3600823A360006800F0D4FD2F
:1017B00016E0A36813F4806F12D0E36843F00203CD
:1017C000E360006800F0C8FD1023A36005EB85020C
:1017D000D3003344082283F85D204FF48063A36074
:1017E000A36813F4007F0BD0E36843F00203E360C7
:1017F0002946306800F0B0FD4FF40073A360F8BDD7
:10180000A36813F0010F43D033694BB1AA002A44F7
:10181000D30033449A6C2169C1F31201521ADA647D
:10182000AA002A44D3003344012283F85D2000211A
:101830009965A26093F83F300BB1022B0AD1E3689F
:1018400043F00203E3602946306800F085FD102371
:10185000A36012E0032B10D1D7F8003543F00053FA
:10186000C7F8003505EB8502D3003344012283F825
:101870005C2029463046FFF789F9AB005919CA00A8
:10188000324492F8503083F0010382F85030F8BDB2
:10189000A36813F0020F62D0E36823F00203E36051
:1018A00005EB8502D300334493F85D30012B07D15B
:1018B00005EB8502D3003344012283F85C2041E02C
:1018C000052B07D105EB8502D3003344052283F8AD
:1018D0005C2037E0062B01D0082B22D1AA002A4435
:1018E000D30033449A6D01329A65032A09D9AA00BC
:1018F0002A44D300334400229A65042283F85C20F2
:1019000006E005EB8502D3003344022283F85C2015
:10191000D7F8003523F0804343F00043C7F8003583
:1019200010E0032B0ED105EB8502D30033440222D5
:1019300083F85C20D7F8003523F0804343F0004360
:10194000C7F800350223A36005EB8502D3003344BA
:1019500093F85C2029463046FFF718F9F8BDA368D4
:1019600013F0800F17D0E36843F00203E360AB008D
:101970005919CA003244916D013191652B44DA0046
:101980003244062382F85D302946306800F0E4FCDA
:101990008023A360F8BDA36813F0100F32D005EBCD
:1019A0008502D300334493F83F30032B0ED105EB6F
:1019B0008502D300334400229A65E36843F00203B2
:1019C000E3602946306800F0C7FC19E00BB1022B38
:1019D00016D105EB8502D300334400229A653369A2
:1019E00073B905EB8502D3003344032283F85D20ED
:1019F000E36843F00203E3602946306800F0ACFC82
:101A00001023A360F8BD00BFF8B5036803EB4113D2
:101A100003F5A064A26812F0040F06D00423A360AB
:101A2000E36843F00203E360F8BD0E460546A26892
:101A300012F0200F20D02023A36001EB8102D300FD
:101A4000034493F83D30012B40F03F818B0059183F
:101A5000CA000244002182F83D103344DA000244F7
:101A6000022382F85C30E36843F00203E36031460E
:101A7000006800F071FCF8BDA26812F0400F19D0A8
:101A80008B005918CA000244042182F85D1001211C
:101A900082F83D103344DA00024400239365E36882
:101AA00043F00203E3603146006800F055FC402338
:101AB000A360F8BDA26812F4007F0AD0E36843F087
:101AC0000203E360006800F047FC4FF40073A3607A
:101AD000F8BDA26812F0010F14D08F007A18D3005D
:101AE000034400229A65E36843F00203E360006860
:101AF00000F032FC0123A360B919C800284480F823
:101B00005D30F8BDA26812F0080F10D00823A36062
:101B1000E36843F00203E360006800F01DFC06EB9D
:101B20008601C8002844052380F85D30F8BDA2680E
:101B300012F0100F24D08A000A44D300034400227C
:101B40009A65032283F85D2093F83D306BB901EB71
:101B50008102D300034493F83C3033B901EB810296
:101B6000D3000344012283F83D20E36843F00203DD
:101B7000E3603146286800F0EFFB1023A360F8BD56
:101B8000A26812F0800F10D0E36843F00203E36014
:101B9000006800F0E1FB06EB8601CB002B44062237
:101BA00083F85D208023A360F8BDA26812F4806FE3
:101BB00013D0E36843F00203E360006800F0CCFB5D
:101BC0001023A3604FF48063A36006EB8601CB0073
:101BD0002B44082283F85D20F8BDA26812F0020FA2
:101BE00073D0E26822F00202E26001EB8101CA00D8
:101BF000024492F85D20012A17D1B2003244D3008A
:101C00000344012283F85C2093F83F30023BDBB2AF
:101C100093424ED8B2003244D300034493F851208B
:101C200082F0010283F8512043E0032A07D106EB3A
:101C30008602D3000344022283F85C2039E0042AA0
:101C400007D106EB8602D3000344022283F85C200E
:101C50002FE0052A07D106EB8602D30003440522B4
:101C600083F85C2025E0062A01D0082A21D1B100A2
:101C70003144CA002A44916D01319165032909D983
:101C8000B1003144CA002A4400219165042182F840
:101C90005C1006E006EB8601CA002A44022182F8A5
:101CA0005C10D3F8002522F0804242F00042C3F8D5
:101CB00000250223A36006EB8602D3002B4493F891
:101CC0005C2031462846FEF761FFF8BDF8B50446B2
:101CD0000568284600F0C0F9012840F09B80206884
:101CE00000F0B6F9002800F09580206800F0B0F907
:101CF00010F4001F03D023684FF400125A612068CB
:101D000000F0A6F910F4801F03D023684FF480126E
:101D10005A61206800F09CF910F0806F03D02368AE
:101D20004FF080625A61206800F092F910F0020FC3
:101D300002D0236802225A61206800F089F910F06D
:101D4000005F10D0D5F8403423F02E03C5F840349E
:101D50002046FEF715FF0121206800F081F9236875
:101D60004FF000525A61206800F072F910F0807F45
:101D700002D02046FFF784FC206800F069F910F0DB
:101D8000080F05D02046FEF7EFFE236808225A61AF
:101D9000206800F05DF910F0007F24D0206800F08A
:101DA000D5FA0746002617E006F00F0327FA03F3DB
:101DB00013F0010F0FD005EB4613D3F8003513F4E1
:101DC000004F04D0F1B22046FFF7C2FC03E0F1B2AD
:101DD0002046FFF719FE0136A3689E42E4D323682C
:101DE0004FF000725A61206800F032F910F0100FC5
:101DF00001D0012300E0002363B12268936923F03E
:101E0000100393612046FFF787FA2268936943F035
:101E100010039361F8BD00BF38B590F8B832012BBC
:101E20000ED00446012580F8B852006800F09EF8F4
:101E30002946206800F054F9002084F8B80238BD23
:101E4000022038BD90F8B832012B0BD010B50446F3
:101E5000012380F8B832006800F0A4FB002084F869
:101E6000B80210BD0220704708B5006800F018F9EC
:101E700008BD00BF01EB8101CB00184490F85C0065
:101E8000704700BF01EB8101CB001844C06C704764
:101E900008B5006800F0D0F908BD00BF08B50068BB
:101EA00000F0BEF908BD00BF002301330C4A934285
:101EB00011D80269002AF8DA036943F001030361CB
:101EC00000230133064A934207D8026912F0010F3A
:101ED000F7D100207047032070470320704700BFF0
:101EE000400D030084B010B5044603A880E80E003E
:101EF000089B012B18D1A36B23F48033A363E36801
:101F000023F4840323F04003E360E36823F44013E5
:101F1000E3600F9B012B03D1E36843F48013E3607C
:101F20002046FFF7C1FF11E0E36843F04003E360A0
:101F30002046FFF7B9FF0C9B23B9A36B43F4803312
:101F4000A36303E0A36B23F48033A363069B012BFD
:101F500007D1A36843F00603A360A36843F02003FE
:101F6000A360BDE8104004B0704700BF836843F031
:101F70000103836000207047836823F001038360BE
:101F80000020704708B5C36823F0C043C36001292F
:101F900004D1C36843F00053C36004E041B9C3688F
:101FA00043F08043C360322001F064F9002008BD93
:101FB000012008BD890141F02001016100230133A6
:101FC000054A934205D8026912F0200FF7D100208C
:101FD00070470320704700BF400D030010230361CA
:101FE00000230133054A934205D8026912F0100F0D
:101FF000F7D1002070470320704700BF400D030059
:1020000070B49DF80C406CB903339B08002507E0C1
:1020100000EB023404F5805451F8046B266001355E
:102020009D42F5D3002070BC704700BF10B403324E
:102030009208002305E000F58054246841F8044B21
:1020400001339342F7D308465DF8044B704700BF55
:102050004269806910407047406900F00100704794
:1020600010B400F58064D0F8003423F00303C0F806
:102070000034D0F8002401F003031343C0F8003407
:10208000012903D14BF68033636004E0022902D1B9
:1020900041F27073636000205DF8044B704700BF2D
:1020A00030B583B0044600250195D0F84034019343
:1020B000019B23F02E030193019B43F48073C0F82E
:1020C0004034642001F0D6F8019B23F48073C4F8F7
:1020D00040340A2001F0CEF8284603B030BD00BFDE
:1020E00082B000230193D0F840340193019B23F088
:1020F0002E030193019B13F4805F06D1012904D1C3
:10210000019B43F48053C0F84034019B13F4805F7B
:1021100005D021B9019B23F48053C0F8403400203E
:1021200002B0704784B038B5044605A880E80E00B8
:1021300025460023C4F8003EA36B43F40013A363B9
:10214000A36B23F40023A363A36B23F48023A36373
:10215000E36B13F4807F10D0079B032B06D1D4F8D8
:10216000003443F00403C4F800340CE0D4F8003425
:1021700023F00403C4F8003405E0D4F8003423F05D
:102180000403C4F8003410212046FFF713FF204653
:10219000FFF724FF002209E005EB42134FF0FF3167
:1021A000C3F808150021C3F80C150132069B9A42AA
:1021B000F2D301212046FFF793FFC82001F05AF81F
:1021C0000023A3614FF0FF336361E36B13F4807F5F
:1021D00009D04FF40073636203F18073A3620D4B67
:1021E000C4F8003107E08023636203F5C003A362F3
:1021F000094BC4F80031089B1BB9A36943F01003D5
:10220000A361A269054B1343A3610020BDE83840D8
:1022100004B070470003E000E0004000080020A385
:1022200082B000230193D0F8403401930198C0F3A9
:10223000414002B0704700BF00F58060806880B206
:10224000704700BFF0B507469DF8184000EB4115F8
:1022500005F5A0604FF0FF368660032C31D8DFE82B
:1022600004F00224021840F29D46C66012F0800F6E
:1022700005D0C66846F48076C660002028E0FE6B74
:1022800016F4807F1FD0C66846F06006C660002046
:102290001EE040F29D66C66012F0800F15D0C66841
:1022A00046F48076C660002012E040F22526C66023
:1022B00012F0800F0BD0C66846F4C076C6600020CE
:1022C00006E0012004E0002002E0002000E0002001
:1022D00007F5806ED7F818C401F00F01012606FA41
:1022E00001F14CEA0101C7F81814B96941F0007115
:1022F000B96112F0800F02D04FF4004700E00027D0
:102300009DF81410022902D14FF4003600E0002697
:102310009B0503F0FE53D20202F4F0421A43A104DB
:1023200001F440210A43BDF81C10C1F30A010A431D
:1023300047EA02033343C5F80035032C05D1D5F82D
:10234000003543F00053C5F80035F0BD00F580605E
:10235000406980B2704700BF10B400EB411101F535
:10236000A064D1F80035C3F381430BB1022B2BD10C
:10237000D1F8003543F08043C1F80035C36A13F447
:102380007F0F1AD1D1F8003523F00043C1F8003592
:10239000D1F8003543F00043C1F80035D1F80035DD
:1023A00023F40043C1F8003500230133B3F57A7FED
:1023B00036D82268002AF8DB32E0D1F8003543F045
:1023C0000043C1F800352BE0D1F8003543F08043DD
:1023D000C1F80035D0F8103413F47F0F1AD1D1F8BA
:1023E000003523F00043C1F80035D1F8003543F043
:1023F0000043C1F80035D1F8003523F40043C1F89B
:10240000003500230133B3F57A7F09D82268002A0A
:10241000F8DB05E0D1F8003543F00043C1F80035A2
:1024200000205DF8044B704700EB4111064AC1F8EB
:102430001025D1F8003523F0804343F00043C1F864
:1024400000350020704700BF00000880F0B583B061
:102450004B78C46B14F4807F15D00C799CB932B9D9
:102460004C79012C03D11946FFF7DEFF92E0012AD7
:1024700009D100EB4314D4F80C5525F06005C4F8DD
:102480000C5500244C710C696CB10D892C44013C35
:10249000B4FBF5F4A4B2B4F5807F05D92D020D612B
:1024A0004FF4807400E00124CD781DB10D8904FB48
:1024B00005F50D6100EB43130D69C5F31207374DA8
:1024C00005EAC4443C438D7A6D0705F0C0452C43B2
:1024D000C3F8104512B1CC68C3F8144500F5806606
:1024E000B46814F0010FD3F8004524F00054C3F889
:1024F0000045D3F800550CBF4FF0005400242C4386
:10250000C3F80045D3F80055254C2560256825F013
:1025100080452560CC782CB1214D2C6844F40044D2
:102520002C6004E01E4D2C6824F400442C601C4CEC
:10253000256845F0004525602468C3F800454ABB7E
:10254000CB783BBB0B692BB3CA79032A1AD8DFE8D7
:1025500002F0020E020E0333C26A92B2C3F38F037B
:1025600093420FD9836943F0200383610AE0033368
:10257000326992B2C3F38F03934203D9836943F064
:1025800080638361CC684A780B8A002100912146E0
:10259000FFF736FD002003B0F0BD00BF0000F81FBC
:1025A0001003002070B505460446FFF7E5FC102136
:1025B0002846FFF7FFFC2846FFF710FD00220AE03F
:1025C00004EB4211D1F8003523F0802343F080431F
:1025D000C1F8003501320F2AF2D90020034613E07A
:1025E00004EB401606F5A061D6F8002522F400425F
:1025F00042F04042C6F800250133B3F57A7F02D895
:102600000A68002AF8DB01300F28E9D94FF0FF33C0
:10261000C5F814346B612846FFF7A8FC002070BD94
:10262000002800F0D78170B582B00446036813F02B
:10263000010F5AD0A04B9B6803F00C03042B0AD067
:102640009D4B9B6803F00C03082B0DD19A4B5B68E4
:1026500013F4800F08D0984B1B6813F4003F44D04C
:102660006368002B41D1B7E16368B3F5803F05D1C2
:10267000914A136843F48033136015E0B3F5A02F3B
:1026800009D18D4B1A6842F480221A601A6842F40C
:1026900080321A6008E0884B1A6822F480321A608F
:1026A0001A6822F480221A6063687BB100F0DCFDB6
:1026B000054605E000F0D8FD401B642800F28E813D
:1026C0007D4B1B6813F4003FF4D00EE000F0CCFD0E
:1026D000054605E000F0C8FD401B642800F280813B
:1026E000754B1B6813F4003FF4D1236813F0020FFD
:1026F00050D0714B9B6813F00C0F0AD06E4B9B6847
:1027000003F00C03082B16D16B4B5B6813F4800F9E
:1027100011D1694B1B6813F0020F03D0E368012B42
:1027200040F06081644A136823F0F803216943EAAA
:10273000C10313602EE0E368D3B101225F4B1A603E
:1027400000F092FD054605E000F08EFD401B0228DA
:1027500000F24A81584B1B6813F0020FF4D0564A1E
:10276000136823F0F803216943EAC103136011E001
:102770000022524B1A6000F077FD054605E000F09C
:1027800073FD401B022800F231814B4B1B6813F094
:10279000020FF4D1236813F0080F26D0636993B1B8
:1027A0000122474B1A6000F05FFD054605E000F08E
:1027B0005BFD401B022800F21B813F4B5B6F13F057
:1027C000020FF4D011E000223D4B1A6000F04CFDE6
:1027D000054605E000F048FD401B022800F20A8192
:1027E000354B5B6F13F0020FF4D1236813F0040F25
:1027F0007DD0314B1B6C13F0805F0DD10023019312
:102800002D4B1A6C42F080521A641B6C03F08053FB
:102810000193019B012500E000252A4B1B6813F45E
:10282000807F13D1274A136843F48073136000F04C
:102830001BFD064605E000F017FD801B022800F294
:10284000DB80204B1B6813F4807FF4D0A368012B3E
:1028500005D1194A136F43F00103136714E0052BE8
:1028600009D1154B1A6F42F004021A671A6F42F031
:1028700001021A6708E0104B1A6F22F001021A6772
:102880001A6F22F004021A67A3688BB100F0ECFC07
:10289000064607E000F0E8FC801B41F288339842CE
:1028A00000F2AC80044B1B6F13F0020FF2D018E063
:1028B00000F0DAFC06460FE0003802400000474214
:1028C000800E47420070004000F0CEFC801B41F2B9
:1028D0008833984200F29480554B1B6F13F0020F1F
:1028E000F2D125B1524A136C23F080531364A369CB
:1028F000002B00F087804E4A926802F00C02082AF2
:1029000048D0022B33D100224A4B1A6000F0ACFCB5
:10291000054604E000F0A8FC401B022874D8444B94
:102920001B6813F0007FF5D1E269236A1343626AE2
:1029300043EA8213A26A5208013A43EA0243E26A76
:1029400043EA02633A4A536001223A4B1A6000F0AC
:102950008BFC044604E000F087FC001B022855D8DD
:10296000334B1B6813F0007FF5D000205DE00022A0
:10297000304B1A6000F078FC044604E000F074FC70
:10298000001B022844D82A4B1B6813F0007FF5D1A6
:1029900000204AE0012B3DD0254B9B6803F48001C9
:1029A000E269914238D103F03F02216A8A4235D16F
:1029B000616A47F6C0721A408A4231D103F440324C
:1029C000A16A8A422ED103F07063E26A93422BD04F
:1029D00001202AE001207047012026E0032024E0A6
:1029E000032022E0012020E003201EE003201CE061
:1029F00003201AE0032018E0032016E0032014E06F
:102A0000032012E0002010E003200EE003200CE081
:102A100003200AE0012008E0012006E0012004E094
:102A2000012002E0012000E0002002B070BD00BFE4
:102A3000003802406000474238B52F4B9B6803F0D6
:102A40000C03042B55D0082B01D02C4838BD2A4B41
:102A50005A6802F03F025B6813F4800F20D0264BC7
:102A60005B68C3F38813DC000025690141EAD46187
:102A70006001041B61EB0505A90141EA9461A00115
:102A8000001B61EB0501C01841F100014B0243EA54
:102A9000D0534402204619460023FDF7B7FB1FE040
:102AA000154B5B68C3F38813DC000025690141EA1C
:102AB000D4616001041B61EB0505A90141EA946141
:102AC000A001001B61EB0501C01841F100018B0260
:102AD00043EA90538402204619460023FDF796FBF3
:102AE000054B5B68C3F3014301335B00B0FBF3F0BC
:102AF00038BD034838BD00BF003802400024F40050
:102B000000127A00002800F0988070B50446524BFD
:102B10001B6803F00F038B4208D2CBB24E4A1370EE
:102B2000136803F00F03994240F08980236813F083
:102B3000020F17D013F0040F04D0484A936843F4EF
:102B4000E0539360236813F0080F04D0434A93685E
:102B500043F4604393604148836823F0F002A36824
:102B6000134383600D46236813F0010F2FD0626872
:102B7000012A05D1394B1B6813F4003F0ED160E0E8
:102B8000931E012B05D8354B1B6813F0007F05D130
:102B900059E0324B1B6813F0020F56D02F498B6857
:102BA00023F0030313438B6000F05EFB064606E050
:102BB00000F05AFB801B41F28833984247D8274BDC
:102BC0009B6803F00C036268B3EB820FF0D1224BD9
:102BD0001B6803F00F039D4207D2EAB21E4B1A7026
:102BE0001B6803F00F039D4233D1236813F0040FD9
:102BF00006D01A498B6823F4E052E36813438B60D4
:102C0000236813F0080F07D0144A936823F4604335
:102C1000216943EAC1039360FFF70EFF0F4B9B68E6
:102C2000C3F303130E4AD35CD8400E4B18600E4B0F
:102C30001868FEF733FB002070BD012070470120AB
:102C400070BD012070BD012070BD012070BD03204A
:102C500070BD012070BD00BF003C02400038024042
:102C60005C7200080800002000000020014B18687A
:102C7000704700BF0800002008B5FFF7F7FF044BBE
:102C80009B68C3F38223034AD35CD84008BD00BFCE
:102C9000003802406C72000808B5FFF7E7FF044BEC
:102CA0009B68C3F34233034AD35CD84008BD00BFDE
:102CB000003802406C7200080F2303600B4B9A68C7
:102CC00002F0030242609A6802F0F00282609A68A1
:102CD00002F4E052C2609B68DB0803F4E053036136
:102CE000034B1B6803F00F030B6070470038024072
:102CF000003C024030B583B00446036813F0430F34
:102D000058D00022994B1A6000F0AEFA054605E053
:102D100000F0AAFA401B022800F21981944B1B68AC
:102D200013F0006FF4D1236813F0010F07D062682D
:102D3000A3681B0743EA82138D4AC2F884302368D4
:102D400013F0020F15D08A49D1F884306068E26828
:102D5000120642EA801203F0E0431343C1F88430C4
:102D6000D1F88C3023F01F02E369013B1343C1F813
:102D70008C30236813F0400F0AD06268E3681B06AA
:102D800043EA8213A26843EA0273794AC2F88430A4
:102D90000122764B1A6000F067FA054605E000F064
:102DA00063FA401B022800F2D480714B1B6813F0B9
:102DB000006FF4D0236813F00C0F56D000226D4B37
:102DC0001A6000F051FA054605E000F04DFA401B8C
:102DD000022800F2C080664B1B6813F0005FF4D13C
:102DE000236813F0040F16D06149D1F888302069A8
:102DF0006269120642EA801203F0E0431343C1F80D
:102E00008830D1F88C3023F4F852236A013B42EA2F
:102E10000323C1F88C30236813F0080F14D0544AF0
:102E2000D2F88830216903F0706343EA8113A16905
:102E300043EA0173C2F88830D2F88C3023F4403171
:102E4000636A0B43C2F88C3001224A4B1A6000F0CF
:102E50000BFA054604E000F007FA401B02287CD874
:102E6000434B1B6813F0005FF5D0236813F0200F6D
:102E700063D0002301933E4B1A6C42F080521A64D7
:102E80001B6C03F080530193019B3B4A136843F48E
:102E90008073136000F0E8F9054604E000F0E4F9FF
:102EA000401B02285BD8344B1B6813F4807FF5D09D
:102EB0002F4B1B6F13F4407322D0A26A02F44072AE
:102EC00093421DD02A4B1A6F22F440722B490120E5
:102ED0000860002008601A671B6F13F0010F0FD005
:102EE00000F0C2F9054606E000F0BEF9401B41F2D1
:102EF0008833984235D81E4B1B6F13F0020FF3D066
:102F0000A36A03F44072B2F5407F0AD118498A6877
:102F100022F4F81223F0704323F4407313438B60C0
:102F200004E0134A936823F4F8139360104A116F76
:102F3000A36AC3F30B030B431367236813F0100F4B
:102F400011D094F82C200E4B1A6000200CE00320C6
:102F50000AE0032008E0032006E0032004E0032049
:102F600002E0032000E0002003B030BD68004742CB
:102F7000003802407000474200700040400E474257
:102F8000E01147422DE9F04182B00023E0E0012248
:102F90009A400C6802EA0405AA4240F0D8804C68C6
:102FA000661E012E03D9112C01D0122C15D1876871
:102FB0004FEA430E032606FA0EF627EA0606CC6809
:102FC00004FA0EF434438460446824EA02024C6834
:102FD000C4F300149C4022434260C6685F0003248F
:102FE000BC40E44306EA04028E68BE401643C66055
:102FF0004A68022A01D0122A13D1DE08083650F896
:10300000268003F007024FEA820E0F2202FA0EF228
:1030100028EA020C0A6902FA0EF24CEA020240F8AF
:103020002620066826404A6802F0030404FA07F2E4
:10303000324302604A6812F0805F00F0888000220C
:103040000192464A546C44F480445464526C02F435
:1030500080420192019A9E08B41C414A52F82470A1
:1030600003F0030292000F24944027EA04073D4C2A
:10307000A04225D004F58064A04223D004F58064EA
:10308000A04221D004F58064A0421FD004F58064E2
:10309000A0421DD004F58064A0421BD004F58064DA
:1030A000A04219D004F58064A04217D004F58064D2
:1030B000A04215D004F58064A04213D1092412E087
:1030C000002410E001240EE002240CE003240AE0B6
:1030D000042408E0052406E0062404E0072402E0B6
:1030E000082400E00A2404FA02F23A4302361C4C97
:1030F00044F826201C4A1468EA4304EA02064F6892
:1031000017F4803F01D045EA0406174C2660646836
:1031100002EA04064F6817F4003F01D045EA0406AE
:10312000114C6660A46802EA04064F6817F4801F19
:1031300001D045EA04060C4CA660E46822404E68C3
:1031400016F4001F01D045EA0402074CE260013387
:103150000F2B7FF61CAF02B0BDE8F08100380240B3
:103160000038014000000240003C01400AB181618A
:103170007047090481617047074AD36823F4E0630C
:103180001B041B0C000200F4E060184340F0BF6019
:1031900040F40030D060704700ED00E030B4164BD2
:1031A000DB68C3F30223C3F10704042C28BF042403
:1031B0001D1D062D01D9DD1E00E00025012303FAA7
:1031C00004F4013C2140A940AB40013B1A400A43B2
:1031D000002808DB1201D2B200F1604000F5614026
:1031E00080F8002305E000F00F001201D2B2034B7B
:1031F0001A5430BC704700BF00ED00E014ED00E051
:10320000002808DB420900F01F00012303FA00F048
:10321000014B43F82200704700E100E008B50B4B7A
:103220001A6842F400721A601A6842F480621A60E6
:103230001A6842F480721A600320FFF79DFF002095
:10324000FEF72CF8FDF726FE002008BD003C0240EA
:10325000034A1368034909780B441360704700BFA1
:10326000988D002004000020014B1868704700BFB3
:10327000988D002038B50446FFF7F6FF0546B4F1F7
:10328000FF3F02D0044B1B781C44FFF7EDFF401BAF
:103290008442FAD838BD00BF0400002068B110B5E0
:1032A0000446437913F0FF0F03D100230371FDF7A8
:1032B00013FE01236371002010BD0120704700BF81
:1032C00058B310B5044690F8393013F0FF0F04D10D
:1032D000002380F83830FDF717FE022384F83930D8
:1032E00021680B6823F44032636813430B60216844
:1032F0004B6B23F00702A36813434B6321680B6CED
:1033000023F47F5323F03F03E26813430B64002050
:10331000E063012384F8393010BD0120704700BFFD
:10332000704700BF704700BF70B5044603685D6812
:103330001E6815F0010F16D016F4807F13D01A689E
:1033400022F480721A60C36B43F00103C363036805
:1033500001229A60042380F83930002380F8383045
:10336000436903B1984715F0200F18D016F4005F99
:1033700015D02268136823F40053136023682022B9
:103380009A60E36B43F00203E363042384F839306B
:10339000002384F8383063690BB12046984715F054
:1033A000080F18D016F4006F15D02268136823F4A4
:1033B00000631360236808229A60E36B43F0040300
:1033C000E363042384F83930002384F838306369D8
:1033D0000BB12046984715F0040F0DD016F4806FFE
:1033E0000AD02268136823F48063136023680422E0
:1033F0009A602046FFF794FF15F0020F16D016F4DE
:10340000007F13D02268136823F4007313602368CD
:1034100002229A60E36BE363012384F839300023CE
:1034200084F8383023690BB12046984715F0100F07
:1034300015D016F4805F12D02268136823F48053ED
:103440001360236810229A60E36BE363012384F81E
:103450003930002384F838302046FFF763FF70BD11
:1034600090F83830012B57D030B4012380F8383031
:10347000022380F8393000EB0113DA698B1C1B0141
:10348000C35842EA0343093A012A07D88A1C00EBD1
:103490000212526802F07F42134305E08A1C00EBDF
:1034A0000212526843EA0263B9B90468656A1C4AA9
:1034B0002A4013436362026800EB01139C69946124
:1034C000DB69093B012B1FD80268023100EB0111B7
:1034D0004B6823F07F43936216E00468E569104A65
:1034E0002A401343E361026800EB01139C691461F5
:1034F000DB69093B012B07D80268023100EB01119F
:103500004B6823F07F431362012380F83930002396
:1035100080F83830184601E00220704730BC704710
:10352000F0FFFC0030B40B68012B18D0036823F4C3
:10353000FF4424F07F044A688B681A43CB681A431F
:103540000B691A434B691A438B691A43CB691A43B7
:103550000B6A13434A6A1343234303601CE0046865
:1035600024F4F842CC690B6A1C434B6A234342EAB9
:103570000304436823F4FF4525F07F054A688B6800
:103580001A43CB681A430B691A434B6913438A6980
:1035900013432B4304604360002030BC704700BFDE
:1035A000F0B5012A20D0836803F0704E0B685A1ED4
:1035B0004E68013E42EA06178D68013D47EA05263E
:1035C000CC68013C46EA04350A69013A45EA0244FE
:1035D0004B69013B44EA03528B69013B42EA0363B6
:1035E0004EEA0303836026E0876827F4700222F422
:1035F0007042CF68013F4B69013B1B0543EA07332B
:1036000042EA0307C36803F0704E0B685E1E4C6805
:10361000013C46EA04158A68013A45EA02240B692E
:10362000013B44EA03428B69013B42EA03634EEAF1
:1036300003038760C3600020F0BD00BFE8B138B568
:1036400004460D4690F82C3013F0FF0F04D10023F0
:1036500080F82D30FDF71EFE022384F82C30211D4A
:103660002068FFF75FFF626829462068FFF798FF30
:10367000012384F82C30002038BD0120704700BFA2
:10368000002800F0C980F8B5044690F83D3013F0EA
:10369000FF0F04D1002380F83C30FDF755FC2423B4
:1036A00084F83D302268136823F001031360226818
:1036B000136843F4004313602268136823F4004343
:1036C0001360FFF7D9FA6268554B9A4205D8554BFB
:1036D00098428CBF0023012304E0534B98428CBFD7
:1036E00000230123002B40F09980504BA3FB0023C3
:1036F0009B0C21684A6822F03F021A434A60256801
:103700002A6A22F03F02666845498E4201D8013399
:1037100008E04FF4967101FB03F34549A1FB031345
:103720009B09013313432B622568E96921F44F415A
:1037300021F0FF0166683A4B9E420AD8431E700092
:10374000B3FBF0F00130C0F30B00042838BF0420B5
:1037500035E0A3685BB9421E06EB4607B2FBF7F201
:103760000132C2F30B02B2FA82F252090CE0421E9D
:1037700006EB860707EB8707B2FBF7F20132C2F3CD
:103780000B02B2FA82F25209C2B953B9421E06EBD9
:103790004600B2FBF0F00130C0F30B0343F40040ED
:1037A0000DE0421E06EB860606EB8606B2FBF6F33C
:1037B0000133C3F30B0343F4404000E0012008430E
:1037C000E86121680B6823F0C002E069236A0343C3
:1037D00013430B6021688B6823F4034222F0FF023D
:1037E0002069E368034313438B602168CB6823F0AF
:1037F000FF026069A36903431343CB602268136827
:1038000043F00103136000202064202384F83D303E
:10381000206384F83E00F8BD012070470120F8BD08
:10382000A08601007F841E00FF083D0083DE1B434D
:10383000D34D621090F83D30DBB2202B1AD12423F7
:1038400080F83D300268136823F0010313600268BA
:10385000536A23F01003536203685A6A1143596292
:103860000268136843F001031360202380F83D30A1
:10387000002070470220704790F83D30DBB2202BCB
:1038800019D1242380F83D300268136823F0010326
:1038900013600268536A9BB223F00F03194389B285
:1038A00051620268136843F001031360202380F81B
:1038B0003D30002070470220704700BFF0B54D68D2
:1038C0000468E368C3F30B431D44D2011444D4F8E5
:1038D000883003F47043C4F88830046816190B6804
:1038E000E468C4F30B442344013343EA0543C6F8B8
:1038F0008830CD680468E368C3F30A031D441444A8
:10390000D4F88C3003F47043C4F88C300468161972
:103910008B68E468C4F30A042344013343EA054393
:10392000C6F88C3003681344D3F8944024F007049D
:10393000C3F89440036813440C69C3F8944091F8A9
:1039400031E091F832308F6906681644D6F89C4011
:103950000025C6F89C500668164491F8304044EAA9
:103960000E2444EA034343EA0763C6F89C30036825
:103970001344D3F8984024F0FF04C3F89840036838
:1039800013444C69C3F8984003681344D3F8A0402B
:1039900024F4E06424F00704C3F8A040036813444F
:1039A000CE690C6A3443C3F8A04003681344D3F8CB
:1039B000AC40C3F8AC50036813444C6AC3F8AC4045
:1039C0000B695BB1012B0BD0042B0BD0022B0BD05E
:1039D000032B0BD0072B0BD102270AE0042708E0AA
:1039E000032706E0022704E0022702E0022700E0A6
:1039F000012704681444D4F8B03003F0E023C4F87D
:103A0000B0300468144404F184058C6A04FB07F6A2
:103A10004B680C681C1B04FB07F3033343EA0643A3
:103A2000EB6203681344D3F8B44024F4FF6424F039
:103A30000704C3F8B44003681344C96AC3F8B41058
:103A400003681A44D2F8843043F00103C2F884308A
:103A5000F0BD00BF002873D038B5044690F8A130FF
:103A600013F0FF0F04D1002380F8A030FDF7C0FA57
:103A7000022384F8A1302268936923F07043936194
:103A8000216888696368A2681343E2681A4323695E
:103A9000134303438B6121688A682A4B1A408A606A
:103AA000656921688868A26942EA054202438A6022
:103AB0002168CA681A40CA60E5692168C868226A34
:103AC00042EA05420243CA6021680A691A400A6153
:103AD000656A21680869A26A42EA054202430A61EE
:103AE000226851690B405361E06A22685169236B77
:103AF00043EA00430B43536194F8353094F8362081
:103B000012042068C16A01F07F41C1622168C86A5D
:103B100042EA032294F8343013430343CB62226811
:103B2000536B43F0060353632268936943F0010328
:103B300093610020C4F8A400012384F8A13038BDAB
:103B40000120704700F800F0704700BF704700BFC9
:103B5000704700BF70B5044603689D6B5E6B15F03F
:103B6000040F16D016F0040F13D05A6B22F0040283
:103B70005A6303680422DA63D0F8A43043F00103E7
:103B8000C0F8A43080F8A120002380F8A030FFF70F
:103B9000DBFF15F0020F18D016F0020F15D02268C7
:103BA000536B23F00203536323680222DA63D4F8D1
:103BB000A4301343C4F8A430042384F8A1300023B4
:103BC00084F8A0302046FFF7BFFF15F0010F12D098
:103BD00016F0010F0FD02268536B23F001035363DB
:103BE00022680123D36384F8A130002384F8A03035
:103BF0002046FFF7ABFF15F0080F13D016F0080FA3
:103C000010D02268536B23F0080353632368082203
:103C1000DA63012384F8A130002384F8A030204621
:103C2000FFF796FF70BD00BF90F8A030012B27D0A2
:103C30002DE9F04196460F4606464FF0010880F800
:103C4000A080022380F8A130342404FB020438341D
:103C50000D460FCD0FC40FCD0FC40FCD0FC42B6871
:103C60002360724639463046FFF728FE3368C3F8B2
:103C7000248086F8A180002086F8A000BDE8F081AD
:103C80000220704700283CD010B504460023836210
:103C900090F8513013F0FF0F04D1002380F850301A
:103CA000FDF772FA022384F851302268136823F07A
:103CB0004003136021686268A3681A43E3681A43EB
:103CC00023691A4363691A43A36903F40073134316
:103CD000E2691343226A1343A26A1A430A60216805
:103CE000638B03F00402636A13434B602268D36959
:103CF00023F40063D36100206065012384F8513010
:103D000010BD0120704700BF10B4036A046A24F09C
:103D100001040462846924F0F00444EA021223F0EE
:103D20000A031943826101625DF8044B704700BFCA
:103D300010B4036A23F0100303628469036A24F455
:103D4000704444EA023223F0A00343EA0111826185
:103D500001625DF8044B7047836823F070031943D8
:103D600041F00701816070470268D36843F00103A6
:103D7000D3600268936803F00703062B03D013682F
:103D800043F0010313600020704700BF704700BF7D
:103D9000704700BF704700BF704700BF10B50446B2
:103DA00003681A6912F0020F17D0DA6812F0020FD6
:103DB00013D06FF002021A610123037703689B6935
:103DC00013F0030F02D0FFF7E3FF04E0FFF7DEFF7D
:103DD0002046FFF7DFFF0023237723681A6912F0DC
:103DE000040F19D0DA6812F0040F15D06FF0040236
:103DF0001A610223237723689B6913F4407F03D061
:103E00002046FFF7C5FF05E02046FFF7BFFF20462D
:103E1000FFF7C0FF0023237723681A6912F0080F09
:103E200019D0DA6812F0080F15D06FF008021A6185
:103E3000042323772368DB6913F0030F03D02046A4
:103E4000FFF7A6FF05E02046FFF7A0FF2046FFF79B
:103E5000A1FF0023237723681A6912F0100F19D0ED
:103E6000DA6812F0100F15D06FF010021A610823F3
:103E700023772368DB6913F4407F03D02046FFF7E4
:103E800087FF05E02046FFF781FF2046FFF782FF0E
:103E90000023237723681A6912F0010F09D0DA682A
:103EA00012F0010F05D06FF001021A612046FCF7F5
:103EB000C1FD23681A6912F0800F09D0DA6812F088
:103EC000800F05D06FF080021A61204600F068F97B
:103ED00023681A6912F0400F09D0DA6812F0400F17
:103EE00005D06FF040021A612046FFF755FF2368A6
:103EF0001A6912F0200F09D0DA6812F0200F05D0ED
:103F00006FF020021A61204600F048F910BD00BF92
:103F10000368304A904212D0B0F1804F0FD0A2F522
:103F20007C4290420BD002F58062904207D002F5AD
:103F30008062904203D002F57842904203D123F090
:103F400070034A681343234A90422AD0B0F1804F4D
:103F500027D0A2F57C42904223D002F580629042A5
:103F60001FD002F5806290421BD002F57842904249
:103F700017D002F57052904213D002F58062904241
:103F80000FD002F5806290420BD0A2F59832904299
:103F900007D002F58062904203D002F58062904221
:103FA00003D123F44073CA68134323F080034A69A2
:103FB000134303608B68C3620B688362054B9842AE
:103FC00003D003F58063984201D10B690363012399
:103FD0004361704700000140B8B110B5044690F845
:103FE0003D3013F0FF0F04D1002380F83C30FDF783
:103FF00001F9022384F83D30211D2068FFF788FF76
:10400000012384F83D30002010BD0120704700BF1F
:1040100010B4846824F47F4442EA0323194344EA39
:10402000010383605DF8044B704700BF90F83C309B
:10403000012B6AD010B50446012380F83C300223DE
:1040400080F83D300268936823F47F4323F07703C0
:1040500093600B68402B43D00AD8102B4AD002D86B
:10406000002B47D04AE0202B44D0302B42D045E0F3
:10407000602B2BD002D8502B1ED03FE0702B03D0EA
:10408000B3F5005F0CD039E0CB684A6889680068F6
:10409000FFF7BEFF2268936843F0770393602DE03B
:1040A000CB684A6889680068FFF7B2FF22689368A6
:1040B00043F48043936021E0CA6849680068FFF7D1
:1040C00023FE50212068FFF747FE17E0CA684968C1
:1040D0000068FFF72DFE60212068FFF73DFE0DE030
:1040E000CA6849680068FFF70FFE40212068FFF7A3
:1040F00033FE03E019462068FFF72EFE012384F803
:104100003D30002084F83C0010BD0220704700BF05
:1041100090F83C30012B3AD030B4012380F83C3089
:10412000022380F83D3003685A689D6822F07004CD
:104130000A6822435A600368174A93421AD0B3F1BF
:10414000804F17D0A2F57C42934213D002F58062D3
:1041500093420FD002F5806293420BD002F5784271
:10416000934207D002F57052934203D0A2F59432E5
:10417000934204D125F080054A6815439D600123D0
:1041800080F83D30002380F83C30184601E00220E2
:10419000704730BC704700BF00000140704700BF4F
:1041A000704700BFF8B5044601680B6923F440521C
:1041B000C36813430B618168036919434369194359
:1041C000C36919430068C26822F4164323F00C0344
:1041D0000B43C36021684B6923F44072A369134306
:1041E0004B61E369B3F5004F61D123685F4A9342A5
:1041F00003D002F5806293422CD1FEF74DFD256875
:104200000021061841EB010736184F41FB0043EA35
:104210005673F20016461F466268002392185B41EF
:1042200080197941FBF7F2FF514BA3FB00125109B2
:10423000642202FB1102D2003232A3FB02235B098B
:104240005A0002F4F87202EB011203F00703134460
:10425000AB60F8BDFEF710FD25680021061841EBA4
:10426000010736184F41FB0043EA5673F200164629
:104270001F466268002392185B4180197941FBF761
:10428000C5FF3B4BA3FB00125109642202FB110244
:10429000D2003232A3FB02235B095A0002F4F87207
:1042A00002EB011203F007031344AB60F8BD23686F
:1042B0002E4A934203D002F5806293422AD1FEF740
:1042C000EBFC25680021061841EB010736184F4129
:1042D000FB0043EA5673F20016461F4663689A00D5
:1042E0009B0F80197941FBF791FF214BA3FB002124
:1042F0004909642202FB110212013232A3FB02239C
:104300005B0903F0F00202EB011103F00F030B4411
:10431000AB60F8BDFEF7B0FC25680021061841EB44
:10432000010736184F41FB0043EA5673F200164668
:104330001F4663689A009B0F80197941FBF766FF5F
:104340000B4BA3FB00214909642202FB110212015D
:104350003232A3FB02235B0903F0F00202EB0111EE
:1043600003F00F030B44AB60F8BD00BF0010014029
:104370001F85EB5168B310B5044690F8393013F03F
:10438000FF0F04D1002380F83830FCF74BFF2423C3
:1043900084F839302268D36823F40053D360204670
:1043A000FFF700FF2268136923F49043136122682A
:1043B000536923F02A0353612268D36843F40053FE
:1043C000D3600020E063202384F8393084F83A3049
:1043D00010BD0120704700BF054BD3F8882042F480
:1043E0007002C3F888204FF000629A60704700BFE7
:1043F00000ED00E000F1080343604FF0FF328260FF
:10440000C360036100230360704700BF00230361A2
:10441000704700BF43684B609A688A609A68516031
:1044200099600861036801330360704730B40D6818
:10443000B5F1FF3F01D1026907E000F1080200E099
:104440001A4653681C68A542FAD253684B609960BB
:104450008A605160086103680133036030BC7047B3
:1044600003694268816891608268416851605A6856
:10447000904201D182685A60002202611A68013AB2
:104480001A601868704700BF10B5044601F00AFBB7
:10449000A26BE36B9A4201D1012400E0002401F0F9
:1044A00023FB204610BD00BF10B5044601F0FAFA08
:1044B000A36B0BB9012400E0002401F015FB20469A
:1044C00010BD00BF70B504461646856B026C3AB944
:1044D000036843BB406801F01FF80023636029E0D4
:1044E0006EB9806802F0A4FDA268236C1344A36037
:1044F0006268934219D32368A36000201AE0C06861
:1045000002F096FD236C5B42E2681A44E260216887
:104510008A4202D262681344E360022E07D145B199
:10452000013D002006E0002004E0002002E0002021
:1045300000E000200135A56370BD00BF026C72B1C0
:1045400010B50346C4681444C4604068844201D373
:104550001868D8600846D96802F06AFD10BD704737
:1045600038B5054601F09EFA95F8454064B20AE078
:104570006B6A53B105F1240000F026FF08B100F08A
:10458000B5FF013C64B2002CF2DCFF2385F8453016
:1045900001F0AAFA01F086FA95F8444064B20AE004
:1045A0002B6953B105F1100000F00EFF08B100F0C7
:1045B0009DFF013C64B2002CF2DCFF2385F84430FF
:1045C00001F092FA38BD00BF38B540B94FF0500342
:1045D00083F31188BFF36F8FBFF34F8FFEE704465D
:1045E0000D4601F05FFA2168E26B236C03FB0210B9
:1045F00060600020A063A160013A02FB0313E36046
:10460000FF2384F8443084F845307DB92369ABB189
:1046100004F1100000F0D8FE80B14FF08052094B39
:104620001A60BFF34F8FBFF36F8F07E004F11000E4
:10463000FFF7E0FE04F12400FFF7DCFE01F054FA7E
:10464000012038BD04ED00E010B5029B0C4609B90D
:104650001B6000E01A60D8631C6401211846FFF754
:10466000B3FF10BD40B94FF0500383F31188BFF37F
:104670006F8FBFF34F8FFEE710B584B0044643B988
:104680004FF0500383F31188BFF36F8FBFF34F8F49
:10469000FEE712B119B1012002E0012000E0002084
:1046A00040B94FF0500383F31188BFF36F8FBFF30E
:1046B0004F8FFEE712B919B9012002E0012000E096
:1046C000002040B94FF0500383F31188BFF36F8F80
:1046D000BFF34F8FFEE7482003900398482808D087
:1046E0004FF0500383F31188BFF36F8FBFF34F8FE9
:1046F000FEE720461C463BB1012384F84630009477
:104700009DF81830FFF7A0FF204604B010BD00BF91
:1047100040B94FF0500383F31188BFF36F8FBFF39D
:104720004F8FFEE7F0B583B0034611B101FB00F0F7
:1047300000E000201E4617460C46483001F088F87D
:10474000054650B1002380F8463000903B4600F10A
:10475000480221463046FFF777FF284603B0F0BDF8
:10476000F0B585B0019240B94FF0500383F3118842
:10477000BFF36F8FBFF34F8FFEE7044619B9026C8A
:104780001AB9012202E0012200E0002242B94FF0F2
:10479000500383F31188BFF36F8FBFF34F8FFEE792
:1047A000022B03D1E26B012A02D102E0012200E0D8
:1047B000002242B94FF0500383F31188BFF36F8F8B
:1047C000BFF34F8FFEE71D460E4600F095FE18B969
:1047D000019B1BB9012302E0012300E0002343B940
:1047E0004FF0500383F31188BFF36F8FBFF34F8FE8
:1047F000FEE7002701F056F9A26BE36B9A4201D362
:10480000022D21D12A4631462046FFF75BFE636A1E
:104810006BB104F1240000F0D7FD88B14FF0805255
:10482000324B1A60BFF34F8FBFF36F8F08E038B180
:104830004FF080522D4B1A60BFF34F8FBFF36F8F35
:1048400001F052F901204EE0019B1BB901F04CF937
:10485000002048E01FB902A800F0FCFD012701F08C
:1048600043F900F0F9FB01F01DF994F844305BB214
:10487000B3F1FF3F02D1002384F8443094F845306F
:104880005BB2B3F1FF3F02D1002384F8453001F061
:104890002BF901A902A800F0E9FDF0B92046FFF7C5
:1048A000F3FDA0B1019904F1100000F075FD204660
:1048B000FFF756FE00F06AFC00289BD14FF08052B3
:1048C0000A4B1A60BFF34F8FBFF36F8F92E72046FA
:1048D000FFF746FE00F05AFC8CE72046FFF740FE4B
:1048E00000F054FC002005B0F0BD00BF04ED00E076
:1048F0002DE9F84340B94FF0500383F31188BFF31B
:104900006F8FBFF34F8FFEE7044619B9006C18B9DB
:10491000012002E0012000E0002040B94FF05003E8
:1049200083F31188BFF36F8FBFF34F8FFEE7022B26
:1049300003D1E06B012802D102E0012000E0002059
:1049400040B94FF0500383F31188BFF36F8FBFF36B
:104950004F8FFEE71F469046894601F0CDF9EFF3F1
:1049600011864FF0500383F31188BFF36F8FBFF3AD
:104970004F8FA26BE36B9A4201D3022F1ED194F8A2
:1049800045506DB23A4649462046FFF79BFDB5F1CA
:10499000FF3F0DD1636A9BB104F1240000F014FDC8
:1049A00080B1B8F1000F0FD00120C8F800000CE072
:1049B0006B1C5BB284F84530012006E0002004E067
:1049C000012002E0012000E0012086F31188BDE80B
:1049D000F88300BFF0B585B0019240B94FF05003A5
:1049E00083F31188BFF36F8FBFF34F8FFEE7044649
:1049F00019B9036C1BB9012302E0012300E0002375
:104A000043B94FF0500383F31188BFF36F8FBFF3A7
:104A10004F8FFEE70E4600F06FFD18B9019B1BB9E2
:104A2000012302E0012300E0002343B94FF05003CB
:104A300083F31188BFF36F8FBFF34F8FFEE700271B
:104A400001F030F8A56BC5B131462046FFF776FD81
:104A5000013DA563236963B104F1100000F0B4FCCB
:104A600038B14FF08052304B1A60BFF34F8FBFF315
:104A70006F8F01F039F8012053E0019B1BB901F061
:104A800033F800204DE01FB902A800F0E3FC012735
:104A900001F02AF800F0E0FA01F004F894F844304C
:104AA0005BB2B3F1FF3F02D1002384F8443094F8A5
:104AB00045305BB2B3F1FF3F02D1002384F84530AB
:104AC00001F012F801A902A800F0D0FCF0B92046CC
:104AD000FFF7EAFCA0B1019904F1240000F05CFCAE
:104AE0002046FFF73DFD00F051FB0028A8D14FF014
:104AF00080520D4B1A60BFF34F8FBFF36F8F9FE74C
:104B00002046FFF72DFD00F041FB99E72046FFF717
:104B100027FD00F03BFB2046FFF7C6FC00288FD0A6
:104B2000002005B0F0BD00BF04ED00E02DE9F84322
:104B300040B94FF0500383F31188BFF36F8FBFF379
:104B40004F8FFEE7044619B9036C1BB9012302E03D
:104B5000012300E0002343B94FF0500383F3118891
:104B6000BFF36F8FBFF34F8FFEE71746894601F003
:104B7000C3F8EFF311864FF0500383F31188BFF3AE
:104B80006F8FBFF34F8FD4F83880B8F1000F1DD06E
:104B900094F844506DB249462046FFF7CFFC08F127
:104BA000FF33A363B5F1FF3F0AD1236983B104F159
:104BB000100000F009FC68B177B1012038600CE00A
:104BC0006B1C5BB284F84430012006E0002004E056
:104BD000012002E0012000E0012086F31188BDE8F9
:104BE000F88300BF0A4B1B681B680BB9012300E068
:104BF000002323B14FF0FF32064B1A607047044B7D
:104C00001B68DB68DB685A68024B1A60704700BF9C
:104C100014030020F00300202DE9F04781460D46E3
:104C200017469A46089EDDF824800A9C9200A5212A
:104C3000206B02F008FA236B07F18042013A03EB84
:104C4000820727F00707002306E0E95CE21882F8F4
:104C50003410EA5C12B101330F2BF6D9002384F82B
:104C60004330062E00D90626E66266640025A56458
:104C7000201DFFF7CBFB04F11800FFF7C7FB2461F1
:104C8000C6F10706A6616462E564256584F85450A0
:104C900052464946384600F0DBFE2060B8F1000F6E
:104CA00001D0C8F80040BDE8F08700BF38B5002447
:104CB00007E004EB840293000E481844FFF79AFBC8
:104CC0000134062CF5D90C4D2846FFF793FB0B4C0D
:104CD0002046FFF78FFB0A48FFF78CFB0948FFF7D8
:104CE00089FB0948FFF786FB084B1D60084B1C60D9
:104CF00038BD00BF38030020F80300200C0400205A
:104D0000D40300201C0300202004002014030020F2
:104D10003003002010B5044600F0C4FE204A13689A
:104D2000013313601F4B1B683BB91E4B1C6013689B
:104D3000012B0DD1FFF7BAFF0AE01B4B1B683BB9F3
:104D4000184B1B68DA6AE36A9A4201D8154B1C605B
:104D5000164A136801331360E36A012202FA03F171
:104D6000134802680A43026003EB83039A00211D83
:104D700010481044FFF74EFB00F0B6FE0A4B1B68CC
:104D80006BB1084B1B68DA6AE36A9A4207D24FF0AC
:104D90008052094B1A60BFF34F8FBFF36F8F10BD66
:104DA000CC030020D003002018030020F4030020CF
:104DB000340400203803002004ED00E010B5044660
:104DC00090F8553033B9006B00F0C8FD204600F074
:104DD000C5FD10BD012B02D100F0C0FD10BD022B9E
:104DE00008D04FF0500383F31188BFF36F8FBFF3E8
:104DF0004F8FFEE710BD00BF10B514E000F052FE6B
:104E00000B4BDB68DC68201DFFF72AFB094A13689F
:104E1000013B1360084A1368013B136000F064FE15
:104E20002046FFF7CBFF044B1B68002BE6D110BDDB
:104E30001C030020CC030020C803002070B50446EA
:104E40000E461D4B1D681D4B18680430FFF708FB0C
:104E500050B91A4B1B68DA6A012303FA02F21849A7
:104E60000B6823EA02030B60B4F1FF3F07D136B1B0
:104E7000124B196804311348FFF7CCFA70BD2C446B
:104E80000E4B1B685C60A54207D90F4B18680B4B93
:104E900019680431FFF7CAFA70BD0C4B1868074B4C
:104EA00019680431FFF7C2FA094B1B689C4201D212
:104EB000074B1C6070BD00BFEC030020D003002036
:104EC00034040020200400203003002014030020BC
:104ED000F003002008B5FFF78FFF074B1B68012B7D
:104EE00007D94FF08052054B1A60BFF34F8FBFF3C5
:104EF0006F8FFBF7ABFDEEE73803002004ED00E019
:104F000070B586B00B9D0C9C45B94FF0500383F3F0
:104F10001188BFF36F8FBFF34F8FFEE744B94FF097
:104F2000500383F31188BFF36F8FBFF34F8FFEE7FA
:104F300058260496049E582E08D04FF0500383F351
:104F40001188BFF36F8FBFF34F8FFEE78CB185B130
:104F50002563022584F8555000250395029405AD7C
:104F600001950A9D0095FFF757FE2046FFF7D2FEF8
:104F700001E000230593059806B070BD2DE9F043CC
:104F800085B006460F4615469846900000F060FC36
:104F900060B18146582000F05BFC044610B1C0F8B7
:104FA000309004E0484600F0D9FC00E000249CB1B9
:104FB000002384F85530039302940D9B01930C9BBE
:104FC000009343462A4639463046FFF725FE2046E1
:104FD000FFF7A0FE012001E04FF0FF3005B0BDE873
:104FE000F08300BF10B588B000240594069407AA8A
:104FF00006A905A8FBF730FD059B0293069B0193CC
:1050000000942346079A0F490F48FFF779FF08B12C
:10501000012300E000239BB14FF0500383F311887C
:10502000BFF36F8FBFF34F8F4FF0FF32074B1A6004
:105030000122074B1A600022064B1A6000F0D4FDD3
:1050400008B010BD74720008D54E0008F0030020AF
:1050500018030020EC030020024A13680133136098
:10506000704700BFC4030020F8B53D4B1B68002B00
:1050700069D13C4B1D6801351D60C5B93A4B1B68B1
:105080001B6843B14FF0500383F31188BFF36F8F58
:10509000BFF34F8FFEE7344A1168344B1868106035
:1050A0001960334A136801331360FFF79BFD314BDE
:1050B0001B689D4203D200243AE0012400E0002452
:1050C000294B1B681B680BB9012300E0002323B1A7
:1050D0004FF0FF32274B1A602AE0234B1B68DB6836
:1050E000DE6873689D4202D2224A136020E0371DB9
:1050F0003846FFF7B5F9B36A1BB106F11800FFF7A0
:10510000AFF9F36A012202FA03F11B4802680A436D
:10511000026003EB83039A00394618481044FFF7F6
:1051200079F9F26A164B1B68DB6A9A42C5D2C7E767
:10513000134B1B68DB6A03EB83039A000F4B9B58EE
:10514000012B06D806E00F4A1368013313600024D0
:1051500000E001240C4B1B6803B101242046F8BD7C
:10516000C4030020EC0300201403002030030020BF
:10517000E8030020F003002034040020380300205E
:10518000D0030020340300203804002038B5344B0D
:105190001B6843B94FF0500383F31188BFF36F8F3F
:1051A000BFF34F8FFEE700F07DFC2D4B1A68013AEC
:1051B0001A601B68002B4CD12A4B1B6833BB0024A0
:1051C0004AE0294BDB68DC6804F11800FFF748F976
:1051D000251D2846FFF744F9E36A012202FA03F18C
:1051E000224802680A43026003EB83039A002946BF
:1051F0001F481044FFF70EF9E26A1E4B1B68DB6A7A
:105200009A4204D301221C4B1A6000E00024164B82
:105210001B68002BD5D10CB1FFF7E4FC174B1C68C1
:1052200054B1FFF721FF10B10122134B1A60013C6A
:10523000F7D10022114B1A600F4B1B685BB14FF086
:1052400080520F4B1A60BFF34F8FBFF36F8F012453
:1052500002E0002400E0002400F046FC204638BDB7
:10526000C4030020CC030020D40300203404002019
:1052700038030020D003002038040020340300202D
:1052800004ED00E010B5A8B10446104B1B6843B113
:105290004FF0500383F31188BFF36F8FBFF34F8F2D
:1052A000FEE7FFF7D9FE00212046FFF7C7FDFFF715
:1052B0006DFF00E0002038B94FF08052044B1A60B7
:1052C000BFF34F8FBFF36F8F10BD00BFC40300202B
:1052D00004ED00E038B52B4B1B681BB101222A4BB3
:1052E0001A6038BD0022284B1A60284B1B681B6BC4
:1052F0001A68B2F1A53F0BD15A68B2F1A53F07D1A8
:105300009A68B2F1A53F03D1DB68B3F1A53F05D0A0
:105310001E4B186819683431FBF79AFB1C4B1B684D
:10532000B3FA83F3DBB2C3F11F0303EB83018A00FB
:1053300018498A5842B94FF0500383F31188BFF3DC
:105340006F8FBFF34F8FFEE7124D9900CA18900080
:10535000284442685468446019448A0008322A4448
:10536000944205D1606803EB83018A002A445060AF
:1053700003EB83039A00074B1A445368DA68034B24
:105380001A6038BDC403002038040020D003002078
:10539000340400203803002040B94FF0500383F359
:1053A0001188BFF36F8FBFF34F8FFEE710B50C4628
:1053B000044B19681831FFF739F801212046FFF72F
:1053C0003DFD10BDD003002038B5C368DC6844B98A
:1053D0004FF0500383F31188BFF36F8FBFF34F8FEC
:1053E000FEE704F118052846FFF73AF8134B1B684F
:1053F000A3B9251D2846FFF733F8E36A012202FA14
:1054000003F10F4802680A43026003EB83039A002A
:1054100029460C481044FEF7FDFF03E029460A48E0
:10542000FEF7F8FFE26A094B1B68DB6A9A4203D970
:105430000120074B186038BD002038BDC403002090
:105440003404002038030020D4030020D0030020BF
:1054500038040020034B1B680360034B1B68436048
:10546000704700BFE8030020EC030020F8B540B906
:105470004FF0500383F31188BFF36F8FBFF34F8F4B
:10548000FEE7054641B94FF0500383F31188BFF39F
:105490006F8FBFF34F8FFEE70C4600F003FB114BFD
:1054A00018686968421A2368B3F1FF3F13D02F6868
:1054B0000D4E3668B74201D088420ED29A4206D2CB
:1054C0009B1A23602846FFF7C5FF002406E000234F
:1054D0002360012402E0002400E0012400F004FB2A
:1054E0002046F8BDEC030020E80300200122014B18
:1054F0001A60704738040020054B1B6823B1054B28
:105500001B681BB9022070470120704700207047BC
:1055100018030020C403002000284BD038B50346F0
:10552000274A1268904208D04FF0500383F3118845
:10553000BFF36F8FBFF34F8FFEE7826C42B94FF01E
:10554000500383F31188BFF36F8FBFF34F8FFEE7D4
:10555000013A8264C06A596C88422DD072BB1C46E5
:105560001D1D2846FEF77CFF70B9E26A02EB82013E
:105570008B001449CB583BB9012303FA02F21249BC
:105580000B6823EA02030B60636CE362C3F107025A
:10559000A261012404FA03F00B490A6802430A607D
:1055A00003EB83039A00294606481044FEF732FFB6
:1055B000204638BD00207047002038BD002038BD8F
:1055C000D00300203803002034040020842801D0B8
:1055D0000330704700207047EFF30580003018BF9C
:1055E0000120704708B5FFF7FDFC002008BD00BF93
:1055F0002DE9F04387B004460F464569A5B1866999
:1056000096B1D0F80480D0F80090B0F90800FFF708
:10561000DDFF22690296019500903B4649464046CF
:10562000FFF76EFC059013E065682668D4F81080DB
:10563000B4F90800FFF7CAFF05AB019300903B46A1
:105640001FFA88F231462846FFF798FC012801D15D
:10565000059800E0002007B0BDE8F08308B508B960
:105660000120FFE7FFF70EFE002008BD10B582B055
:10567000826842B1C36833B1416800680024009475
:10568000FEF7F0FF04E0002241680068FFF740F8F1
:1056900002B010BD30B585B00446019100230393DC
:1056A000154602B90125FFF797FF98B1002303AA19
:1056B00001A92046FFF71CF9012815D1039BABB1C6
:1056C0004FF080520C4B1A60BFF34F8FBFF36F8FB8
:1056D00000200EE000232A4601A92046FFF740F8EB
:1056E000012805D0FF2004E0FF2002E0002000E0B8
:1056F000002005B030BD00BF04ED00E070B584B0FF
:10570000044602910023019341B904AB802243F87F
:10571000102D93E8070084E8070036E00D46164692
:1057200000230393B2F1FF3F02D00AB102B9012670
:10573000FFF752FFB0B103AA01A92846FFF7F6F917
:10574000012802D11023009301E000230093039B62
:10575000BBB14FF080520E4B1A60BFF34F8FBFF3B7
:105760006F8F0EE0324601A92846FFF733F9012872
:1057700002D11023009304E00EB9002300E040237F
:1057800000939DE8070084E80700204604B070BD40
:1057900004ED00E0124A12F0070F07D0D11D21F0EE
:1057A0000701C1F5004313440A4601E04FF40043EA
:1057B0000C480260002141601344083B23F00703BA
:1057C0000948036059601960991A51601360074BCA
:1057D0001960074B19604FF00042064B1A60704782
:1057E0004C04002044040020400400205084002089
:1057F0003C0400204C840020134B00E013461A6840
:105800008242FBD310B45C681919884203D1416805
:10581000214459601846446801198A420CD10B4949
:1058200009688A4206D05268224442601A681268A7
:10583000026002E0016000E00260984200D018605F
:105840005DF8044B704700BF440400204004002072
:1058500070B50446FFF700FC3B4B1B680BB9FFF724
:1058600099FF3A4B1B681C4253D194B1083414F091
:10587000070F0ED024F00704083404F0070343B1E7
:105880004FF0500383F31188BFF36F8FBFF34F8F37
:10589000FEE7002C3FD02E4B1B689C423DD82D4B81
:1058A0001D6801E02B4615466A68944202D92A68B1
:1058B000002AF7D1244A1268954230D01E68083673
:1058C0002A681A606B681B1B102B10D9281910F05E
:1058D000070F08D04FF0500383F31188BFF36F8F89
:1058E000BFF34F8FFEE743606C60FFF785FF6A6888
:1058F00017490B689B1A0B60174909688B4201D244
:1059000015490B60114B1B681A436A6000232B601A
:1059100006E0002604E0002602E0002600E0002663
:10592000FFF734FC0EB9FBF795F816F0070F08D017
:105930004FF0500383F31188BFF36F8FBFF34F8F86
:10594000FEE7304670BD00BF400400204C840020BC
:105950003C0400204404002050840020A0B338B54B
:105960000346A0F1080550F8042C1849096812EA0A
:10597000010408D14FF0500383F31188BFF36F8FF8
:10598000BFF34F8FFEE750F8080C40B14FF05003C3
:1059900083F31188BFF36F8FBFF34F8FFEE794B18E
:1059A00088B91C4622EA010243F8042CFFF754FB95
:1059B00054F8043C064A11680B4413602846FFF76C
:1059C0001BFFFFF7E3FB38BD704700BF4C8400208E
:1059D0003C04002082B0002301930D4B1B68B3F1FF
:1059E000FF3F08D04FF0500383F31188BFF36F8F50
:1059F000BFF34F8FFEE74FF0500383F31188BFF3DF
:105A00006F8FBFF34F8F019B002BFCD002B070470C
:105A10000C00002008480068006880F308884FF0F8
:105A2000000080F3148862B661B6BFF34F8FBFF3F6
:105A30006F8F00DF00BF000008ED00E0DFF80C0012
:105A4000016841F4700101607047000088ED00E0DA
:105A50004FF0807340F8043C21F0010140F8081C2D
:105A6000054B40F80C3C40F8202C6FF0020340F846
:105A7000243C4438704700BFD5590008000000009E
:105A8000074B19680868B0E8F04F80F30988BFF346
:105A90006F8F4FF0000080F311887047AFF30080E4
:105AA000D00300204FF0500383F31188BFF36F8FB2
:105AB000BFF34F8F0A4A136801331360012B0DD1D6
:105AC000084B1B6813F0FF0F08D04FF0500383F30F
:105AD0001188BFF36F8FBFF34F8FFEE7704700BF92
